{
  "contractName": "Marketplace",
  "abi": [
    {
      "constant": true,
      "inputs": [],
      "name": "name",
      "outputs": [
        {
          "name": "",
          "type": "string"
        }
      ],
      "payable": false,
      "stateMutability": "view",
      "type": "function",
      "signature": "0x06fdde03"
    },
    {
      "constant": true,
      "inputs": [
        {
          "name": "",
          "type": "uint256"
        }
      ],
      "name": "products",
      "outputs": [
        {
          "name": "id",
          "type": "uint256"
        },
        {
          "name": "name",
          "type": "string"
        },
        {
          "name": "owner",
          "type": "address"
        },
        {
          "name": "price",
          "type": "uint256"
        },
        {
          "name": "purchased",
          "type": "bool"
        }
      ],
      "payable": false,
      "stateMutability": "view",
      "type": "function",
      "signature": "0x7acc0b20"
    },
    {
      "constant": true,
      "inputs": [],
      "name": "productsCount",
      "outputs": [
        {
          "name": "",
          "type": "uint256"
        }
      ],
      "payable": false,
      "stateMutability": "view",
      "type": "function",
      "signature": "0xe0df7bb6"
    },
    {
      "inputs": [],
      "payable": false,
      "stateMutability": "nonpayable",
      "type": "constructor",
      "signature": "constructor"
    },
    {
      "anonymous": false,
      "inputs": [
        {
          "indexed": false,
          "name": "id",
          "type": "uint256"
        },
        {
          "indexed": false,
          "name": "name",
          "type": "string"
        },
        {
          "indexed": false,
          "name": "owner",
          "type": "address"
        },
        {
          "indexed": false,
          "name": "price",
          "type": "uint256"
        },
        {
          "indexed": false,
          "name": "purchased",
          "type": "bool"
        }
      ],
      "name": "productCreated",
      "type": "event",
      "signature": "0xc1c0a88f75fbc21d8f46b94c0506f8ef16a3f4bfde7f9c6952e06dee59aad35d"
    },
    {
      "anonymous": false,
      "inputs": [
        {
          "indexed": false,
          "name": "id",
          "type": "uint256"
        },
        {
          "indexed": false,
          "name": "name",
          "type": "string"
        },
        {
          "indexed": false,
          "name": "owner",
          "type": "address"
        },
        {
          "indexed": false,
          "name": "price",
          "type": "uint256"
        },
        {
          "indexed": false,
          "name": "purchased",
          "type": "bool"
        }
      ],
      "name": "productPurchased",
      "type": "event",
      "signature": "0x92f9d5db59faf50f1d71fed384760cd736b5ae35b9f9307b438e93c754bd5b27"
    },
    {
      "constant": false,
      "inputs": [
        {
          "name": "_name",
          "type": "string"
        },
        {
          "name": "_price",
          "type": "uint256"
        }
      ],
      "name": "createProducts",
      "outputs": [],
      "payable": false,
      "stateMutability": "nonpayable",
      "type": "function",
      "signature": "0x2714cade"
    },
    {
      "constant": false,
      "inputs": [
        {
          "name": "_id",
          "type": "uint256"
        }
      ],
      "name": "purchaseProducts",
      "outputs": [],
      "payable": true,
      "stateMutability": "payable",
      "type": "function",
      "signature": "0x3cbc35ed"
    }
  ],
  "bytecode": "0x6080604052600060025534801561001557600080fd5b506040805190810160405280601381526020017f4d79204d61726b6574706c61636520646170700000000000000000000000000081525060009080519060200190610061929190610067565b5061010c565b828054600181600116156101000203166002900490600052602060002090601f016020900481019282601f106100a857805160ff19168380011785556100d6565b828001600101855582156100d6579182015b828111156100d55782518255916020019190600101906100ba565b5b5090506100e391906100e7565b5090565b61010991905b808211156101055760008160009055506001016100ed565b5090565b90565b610c068061011b6000396000f3fe60806040526004361061006d576000357c0100000000000000000000000000000000000000000000000000000000900463ffffffff16806306fdde03146100725780632714cade146101025780633cbc35ed146101d45780637acc0b2014610202578063e0df7bb614610302575b600080fd5b34801561007e57600080fd5b5061008761032d565b6040518080602001828103825283818151815260200191508051906020019080838360005b838110156100c75780820151818401526020810190506100ac565b50505050905090810190601f1680156100f45780820380516001836020036101000a031916815260200191505b509250505060405180910390f35b34801561010e57600080fd5b506101d26004803603604081101561012557600080fd5b810190808035906020019064010000000081111561014257600080fd5b82018360208201111561015457600080fd5b8035906020019184600183028401116401000000008311171561017657600080fd5b91908080601f016020809104026020016040519081016040528093929190818152602001838380828437600081840152601f19601f820116905080830192505050505050509192919290803590602001909291905050506103cb565b005b610200600480360360208110156101ea57600080fd5b81019080803590602001909291905050506105dc565b005b34801561020e57600080fd5b5061023b6004803603602081101561022557600080fd5b81019080803590602001909291905050506109ec565b60405180868152602001806020018573ffffffffffffffffffffffffffffffffffffffff1673ffffffffffffffffffffffffffffffffffffffff16815260200184815260200183151515158152602001828103825286818151815260200191508051906020019080838360005b838110156102c35780820151818401526020810190506102a8565b50505050905090810190601f1680156102f05780820380516001836020036101000a031916815260200191505b50965050505050505060405180910390f35b34801561030e57600080fd5b50610317610ae7565b6040518082815260200191505060405180910390f35b60008054600181600116156101000203166002900480601f0160208091040260200160405190810160405280929190818152602001828054600181600116156101000203166002900480156103c35780601f10610398576101008083540402835291602001916103c3565b820191906000526020600020905b8154815290600101906020018083116103a657829003601f168201915b505050505081565b600082511115156103db57600080fd5b6000811115156103ea57600080fd5b60016002540160028190555060a06040519081016040528060025481526020018381526020013373ffffffffffffffffffffffffffffffffffffffff16815260200182815260200160001515815250600160006002548152602001908152602001600020600082015181600001556020820151816001019080519060200190610474929190610aed565b5060408201518160020160006101000a81548173ffffffffffffffffffffffffffffffffffffffff021916908373ffffffffffffffffffffffffffffffffffffffff1602179055506060820151816003015560808201518160040160006101000a81548160ff0219169083151502179055509050507fc1c0a88f75fbc21d8f46b94c0506f8ef16a3f4bfde7f9c6952e06dee59aad35d600254833384600060405180868152602001806020018573ffffffffffffffffffffffffffffffffffffffff1673ffffffffffffffffffffffffffffffffffffffff16815260200184815260200183151515158152602001828103825286818151815260200191508051906020019080838360005b8381101561059a57808201518184015260208101905061057f565b50505050905090810190601f1680156105c75780820380516001836020036101000a031916815260200191505b50965050505050505060405180910390a15050565b6105e4610b6d565b6001600083815260200190815260200160002060a0604051908101604052908160008201548152602001600182018054600181600116156101000203166002900480601f0160208091040260200160405190810160405280929190818152602001828054600181600116156101000203166002900480156106a65780601f1061067b576101008083540402835291602001916106a6565b820191906000526020600020905b81548152906001019060200180831161068957829003601f168201915b505050505081526020016002820160009054906101000a900473ffffffffffffffffffffffffffffffffffffffff1673ffffffffffffffffffffffffffffffffffffffff1673ffffffffffffffffffffffffffffffffffffffff168152602001600382015481526020016004820160009054906101000a900460ff161515151581525050905060008160400151905060008311801561074757506002548311155b151561075257600080fd5b8160600151341015151561076557600080fd5b3373ffffffffffffffffffffffffffffffffffffffff168173ffffffffffffffffffffffffffffffffffffffff16141515156107a057600080fd5b81608001511515156107b157600080fd5b33826040019073ffffffffffffffffffffffffffffffffffffffff16908173ffffffffffffffffffffffffffffffffffffffff168152505060018260800190151590811515815250508160016000858152602001908152602001600020600082015181600001556020820151816001019080519060200190610834929190610aed565b5060408201518160020160006101000a81548173ffffffffffffffffffffffffffffffffffffffff021916908373ffffffffffffffffffffffffffffffffffffffff1602179055506060820151816003015560808201518160040160006101000a81548160ff0219169083151502179055509050508073ffffffffffffffffffffffffffffffffffffffff166108fc349081150290604051600060405180830381858888f193505050501580156108ef573d6000803e3d6000fd5b507f92f9d5db59faf50f1d71fed384760cd736b5ae35b9f9307b438e93c754bd5b276002548360200151338560600151600160405180868152602001806020018573ffffffffffffffffffffffffffffffffffffffff1673ffffffffffffffffffffffffffffffffffffffff16815260200184815260200183151515158152602001828103825286818151815260200191508051906020019080838360005b838110156109a957808201518184015260208101905061098e565b50505050905090810190601f1680156109d65780820380516001836020036101000a031916815260200191505b50965050505050505060405180910390a1505050565b6001602052806000526040600020600091509050806000015490806001018054600181600116156101000203166002900480601f016020809104026020016040519081016040528092919081815260200182805460018160011615610100020316600290048015610a9e5780601f10610a7357610100808354040283529160200191610a9e565b820191906000526020600020905b815481529060010190602001808311610a8157829003601f168201915b5050505050908060020160009054906101000a900473ffffffffffffffffffffffffffffffffffffffff16908060030154908060040160009054906101000a900460ff16905085565b60025481565b828054600181600116156101000203166002900490600052602060002090601f016020900481019282601f10610b2e57805160ff1916838001178555610b5c565b82800160010185558215610b5c579182015b82811115610b5b578251825591602001919060010190610b40565b5b509050610b699190610bb5565b5090565b60a0604051908101604052806000815260200160608152602001600073ffffffffffffffffffffffffffffffffffffffff168152602001600081526020016000151581525090565b610bd791905b80821115610bd3576000816000905550600101610bbb565b5090565b9056fea165627a7a7230582043929b4f2a8d3f5682b1ea02307d41ec6835a138a2d250ff2133ffff7a6bff3f0029",
  "source": "// SPDX-License-Identifier: SEE LICENSE IN LICENSE\r\npragma solidity ^0.5.0;\r\n\r\n// cd users\\vasav\\blockchain_development\\marketapp\r\n// truffle test\r\n\r\n\r\ncontract  Marketplace {\r\n\r\n\r\n    string public name;\r\n    mapping (uint => Product) public products;\r\n    uint public productsCount = 0;\r\n\r\n\r\n    struct Product {\r\n        uint id;\r\n        string name;\r\n        address payable owner;\r\n        uint price;\r\n        bool purchased;        \r\n    }\r\n\r\n    event productCreated(\r\n        uint id,\r\n        string name,\r\n        address payable owner,\r\n        uint price,\r\n        bool purchased\r\n    );\r\n    event productPurchased(\r\n        uint id,\r\n        string name,\r\n        address payable owner,\r\n        uint price,\r\n        bool purchased\r\n    );\r\n\r\n    constructor() public {\r\n        name = \"My Marketplace dapp\";\r\n    }\r\n\r\n    function  createProducts(string memory _name,uint _price) public {\r\n        require(bytes(_name).length > 0);\r\n        require(_price > 0);\r\n\r\n        productsCount = productsCount +1 ;\r\n        products[productsCount] = Product(productsCount,_name,msg.sender,_price,false);\r\n        emit productCreated(productsCount,_name,msg.sender,_price,false);\r\n    }\r\n\r\n    function purchaseProducts(uint _id) public payable{\r\n\r\n       \r\n\r\n        Product memory _product = products[_id];\r\n        address payable mowner = _product.owner;\r\n\r\n         require(_id > 0 && _id <= productsCount);\r\n        require(msg.value >= _product.price);\r\n        require(mowner != msg.sender);\r\n        require(!_product.purchased);\r\n\r\n        _product.owner = msg.sender;\r\n        _product.purchased = true;\r\n        products[_id] = _product;\r\n        address(mowner).transfer(msg.value);\r\n\r\n        emit productPurchased(productsCount,_product.name,msg.sender,_product.price,true);\r\n\r\n\r\n    }\r\n}",
  "sourcePath": "C:/Users/vasav/blockchain_development/marketapp/src/contracts/marketplace.sol",
  "compiler": {
    "name": "solc",
    "version": "0.5.0+commit.1d4f565a.Emscripten.clang"
  },
  "schemaVersion": "3.0.2",
  "updatedAt": "2022-06-07T04:35:02.478Z",
  "devdoc": {
    "methods": {}
  },
  "userdoc": {
    "methods": {}
  }
}